{
  "address": "0xd8B2F7471eE9308be88b17519EA0286946553aAA",
  "abi": [
    {
      "inputs": [
        {
          "internalType": "contract IERC20",
          "name": "newToken",
          "type": "address"
        }
      ],
      "stateMutability": "nonpayable",
      "type": "constructor"
    },
    {
      "anonymous": false,
      "inputs": [
        {
          "indexed": true,
          "internalType": "address",
          "name": "previousOwner",
          "type": "address"
        },
        {
          "indexed": true,
          "internalType": "address",
          "name": "newOwner",
          "type": "address"
        }
      ],
      "name": "OwnershipTransferred",
      "type": "event"
    },
    {
      "anonymous": false,
      "inputs": [
        {
          "indexed": true,
          "internalType": "address",
          "name": "user",
          "type": "address"
        },
        {
          "indexed": false,
          "internalType": "uint256",
          "name": "amount",
          "type": "uint256"
        }
      ],
      "name": "RewardClaimed",
      "type": "event"
    },
    {
      "anonymous": false,
      "inputs": [
        {
          "indexed": true,
          "internalType": "address",
          "name": "user",
          "type": "address"
        },
        {
          "indexed": false,
          "internalType": "uint256",
          "name": "amount",
          "type": "uint256"
        },
        {
          "indexed": false,
          "internalType": "uint256",
          "name": "slicePeriod",
          "type": "uint256"
        },
        {
          "indexed": false,
          "internalType": "uint256",
          "name": "startTime",
          "type": "uint256"
        },
        {
          "indexed": false,
          "internalType": "uint256",
          "name": "duration",
          "type": "uint256"
        }
      ],
      "name": "UserAdded",
      "type": "event"
    },
    {
      "inputs": [
        {
          "internalType": "address",
          "name": "newUser",
          "type": "address"
        },
        {
          "internalType": "uint256",
          "name": "newAmount",
          "type": "uint256"
        },
        {
          "internalType": "uint256",
          "name": "newSlicePeriod",
          "type": "uint256"
        },
        {
          "internalType": "uint256",
          "name": "newStartTime",
          "type": "uint256"
        },
        {
          "internalType": "uint256",
          "name": "newDuration",
          "type": "uint256"
        }
      ],
      "name": "addUser",
      "outputs": [],
      "stateMutability": "nonpayable",
      "type": "function"
    },
    {
      "inputs": [
        {
          "internalType": "address",
          "name": "newUser",
          "type": "address"
        }
      ],
      "name": "available",
      "outputs": [
        {
          "internalType": "uint256",
          "name": "",
          "type": "uint256"
        }
      ],
      "stateMutability": "view",
      "type": "function"
    },
    {
      "inputs": [],
      "name": "claim",
      "outputs": [],
      "stateMutability": "nonpayable",
      "type": "function"
    },
    {
      "inputs": [],
      "name": "owner",
      "outputs": [
        {
          "internalType": "address",
          "name": "",
          "type": "address"
        }
      ],
      "stateMutability": "view",
      "type": "function"
    },
    {
      "inputs": [],
      "name": "renounceOwnership",
      "outputs": [],
      "stateMutability": "nonpayable",
      "type": "function"
    },
    {
      "inputs": [],
      "name": "token",
      "outputs": [
        {
          "internalType": "contract IERC20",
          "name": "",
          "type": "address"
        }
      ],
      "stateMutability": "view",
      "type": "function"
    },
    {
      "inputs": [
        {
          "internalType": "address",
          "name": "newOwner",
          "type": "address"
        }
      ],
      "name": "transferOwnership",
      "outputs": [],
      "stateMutability": "nonpayable",
      "type": "function"
    },
    {
      "inputs": [
        {
          "internalType": "address",
          "name": "",
          "type": "address"
        }
      ],
      "name": "vestings",
      "outputs": [
        {
          "internalType": "uint256",
          "name": "amount",
          "type": "uint256"
        },
        {
          "internalType": "uint256",
          "name": "claimed",
          "type": "uint256"
        },
        {
          "internalType": "uint256",
          "name": "slicePeriod",
          "type": "uint256"
        },
        {
          "internalType": "uint256",
          "name": "startTime",
          "type": "uint256"
        },
        {
          "internalType": "uint256",
          "name": "duration",
          "type": "uint256"
        }
      ],
      "stateMutability": "view",
      "type": "function"
    }
  ],
  "transactionHash": "0x80e459bd676175bfe07a247717a2ace1be0f7bec81344953cafe05d01b0325d6",
  "args": [
    "0xec6EaE69296134e6cE07bDf3c3Da52E3a0D7C0b6"
  ],
  "numDeployments": 1,
  "solcInputHash": "5a84ba83ba82f88ad2a95fcc52dc78c0",
  "bytecode": "0x60a060405234801561001057600080fd5b50604051610c8e380380610c8e83398101604081905261002f916100ac565b6100383361005c565b6001600160a01b03811661004b57600080fd5b6001600160a01b03166080526100dc565b600080546001600160a01b038381166001600160a01b0319831681178455604051919092169283917f8be0079c531659141344cd1fd0a4f28419497f9722a3daafe3b4186f6b6457e09190a35050565b6000602082840312156100be57600080fd5b81516001600160a01b03811681146100d557600080fd5b9392505050565b608051610b906100fe6000396000818161017901526105590152610b906000f3fe608060405234801561001057600080fd5b50600436106100885760003560e01c80638da5cb5b1161005b5780638da5cb5b146100d8578063daf49863146100fd578063f2fde38b14610161578063fc0c546a1461017457600080fd5b806310098ad51461008d57806317bac95f146100b35780634e71d92d146100c8578063715018a6146100d0575b600080fd5b6100a061009b3660046109a1565b61019b565b6040519081526020015b60405180910390f35b6100c66100c13660046109bc565b6102c0565b005b6100c66104ce565b6100c66105b8565b6000546001600160a01b03165b6040516001600160a01b0390911681526020016100aa565b61013961010b3660046109a1565b6001602081905260009182526040909120805491810154600282015460038301546004909301549192909185565b604080519586526020860194909452928401919091526060830152608082015260a0016100aa565b6100c661016f3660046109a1565b6105ee565b6100e57f000000000000000000000000000000000000000000000000000000000000000081565b6001600160a01b0381166000908152600160208181526040808420815160a08101835281548152938101549284019290925260028201549083015260038101546060830181905260049091015460808301524210156101fd5750600092915050565b6000816080015182606001516102139190610a14565b905060008142116102245742610226565b815b90508181141561024a57602083015183516102419190610a2c565b95945050505050565b600083606001518261025c9190610a2c565b905060008460400151826102709190610a43565b905060008560400151826102849190610a65565b9050856020015186608001518760000151836102a09190610a65565b6102aa9190610a43565b6102b49190610a2c565b98975050505050505050565b6000546001600160a01b031633146102f35760405162461bcd60e51b81526004016102ea90610a84565b60405180910390fd5b6001600160a01b03851661033f5760405162461bcd60e51b8152602060048201526013602482015272155cd95c881a5cdb9d081cdc1958da599a5959606a1b60448201526064016102ea565b6001600160a01b038516600090815260016020526040902054156103b95760405162461bcd60e51b815260206004820152602b60248201527f54686973207573657220686173206265656e20616c726561647920616464656460448201526a20746f2076657374696e6760a81b60648201526084016102ea565b8142111561041d5760405162461bcd60e51b815260206004820152602b60248201527f43616e74206d616b65207374617274206265666f726520626c6f636b2e74696d60448201526a657374616d702074696d6560a81b60648201526084016102ea565b6040805160a08101825285815260006020808301828152838501888152606080860189815260808088018a81526001600160a01b038f168089526001808952988b902099518a5595519789019790975592516002880155516003870155935160049095019490945584518981529182018890529381018690529081018490527f5a70e057b57de94548128594c54545acb9d00009a1de1c523d731bd62e298fac910160405180910390a25050505050565b60006104d93361019b565b9050600081116105245760405162461bcd60e51b815260206004820152601660248201527543616e7420636c61696d207a65726f20746f6b656e7360501b60448201526064016102ea565b3360009081526001602081905260408220018054839290610546908490610a14565b9091555061058090506001600160a01b037f0000000000000000000000000000000000000000000000000000000000000000163383610689565b60405181815233907f106f923f993c2149d49b4255ff723acafa1f2d94393f561d3eda32ae348f72419060200160405180910390a250565b6000546001600160a01b031633146105e25760405162461bcd60e51b81526004016102ea90610a84565b6105ec60006106e0565b565b6000546001600160a01b031633146106185760405162461bcd60e51b81526004016102ea90610a84565b6001600160a01b03811661067d5760405162461bcd60e51b815260206004820152602660248201527f4f776e61626c653a206e6577206f776e657220697320746865207a65726f206160448201526564647265737360d01b60648201526084016102ea565b610686816106e0565b50565b604080516001600160a01b038416602482015260448082018490528251808303909101815260649091019091526020810180516001600160e01b031663a9059cbb60e01b1790526106db908490610730565b505050565b600080546001600160a01b038381166001600160a01b0319831681178455604051919092169283917f8be0079c531659141344cd1fd0a4f28419497f9722a3daafe3b4186f6b6457e09190a35050565b6000610785826040518060400160405280602081526020017f5361666545524332303a206c6f772d6c6576656c2063616c6c206661696c6564815250856001600160a01b03166108029092919063ffffffff16565b8051909150156106db57808060200190518101906107a39190610ab9565b6106db5760405162461bcd60e51b815260206004820152602a60248201527f5361666545524332303a204552433230206f7065726174696f6e20646964206e6044820152691bdd081cdd58d8d9595960b21b60648201526084016102ea565b6060610811848460008561081b565b90505b9392505050565b60608247101561087c5760405162461bcd60e51b815260206004820152602660248201527f416464726573733a20696e73756666696369656e742062616c616e636520666f6044820152651c8818d85b1b60d21b60648201526084016102ea565b6001600160a01b0385163b6108d35760405162461bcd60e51b815260206004820152601d60248201527f416464726573733a2063616c6c20746f206e6f6e2d636f6e747261637400000060448201526064016102ea565b600080866001600160a01b031685876040516108ef9190610b0b565b60006040518083038185875af1925050503d806000811461092c576040519150601f19603f3d011682016040523d82523d6000602084013e610931565b606091505b509150915061094182828661094c565b979650505050505050565b6060831561095b575081610814565b82511561096b5782518084602001fd5b8160405162461bcd60e51b81526004016102ea9190610b27565b80356001600160a01b038116811461099c57600080fd5b919050565b6000602082840312156109b357600080fd5b61081482610985565b600080600080600060a086880312156109d457600080fd5b6109dd86610985565b97602087013597506040870135966060810135965060800135945092505050565b634e487b7160e01b600052601160045260246000fd5b60008219821115610a2757610a276109fe565b500190565b600082821015610a3e57610a3e6109fe565b500390565b600082610a6057634e487b7160e01b600052601260045260246000fd5b500490565b6000816000190483118215151615610a7f57610a7f6109fe565b500290565b6020808252818101527f4f776e61626c653a2063616c6c6572206973206e6f7420746865206f776e6572604082015260600190565b600060208284031215610acb57600080fd5b8151801515811461081457600080fd5b60005b83811015610af6578181015183820152602001610ade565b83811115610b05576000848401525b50505050565b60008251610b1d818460208701610adb565b9190910192915050565b6020815260008251806020840152610b46816040850160208701610adb565b601f01601f1916919091016040019291505056fea264697066735822122098741da012056fb98b10032863aab30e8db5e70335a3c40f448c8c5905504b5c64736f6c634300080a0033",
  "devdoc": {
    "kind": "dev",
    "methods": {
      "addUser(address,uint256,uint256,uint256,uint256)": {
        "params": {
          "newAmount": "Amount allocated for user",
          "newDuration": "Duration of vesting",
          "newSlicePeriod": "Period for which user can get reward",
          "newStartTime": "Start time of vesting",
          "newUser": "Address of user"
        }
      },
      "available(address)": {
        "params": {
          "newUser": "Address of user, which reward we want to calculate"
        }
      },
      "constructor": {
        "params": {
          "newToken": "ERC-20 token address for vesting"
        }
      },
      "owner()": {
        "details": "Returns the address of the current owner."
      },
      "renounceOwnership()": {
        "details": "Leaves the contract without owner. It will not be possible to call `onlyOwner` functions anymore. Can only be called by the current owner. NOTE: Renouncing ownership will leave the contract without an owner, thereby removing any functionality that is only available to the owner."
      },
      "transferOwnership(address)": {
        "details": "Transfers ownership of the contract to a new account (`newOwner`). Can only be called by the current owner."
      }
    },
    "version": 1
  },
  "userdoc": {
    "kind": "user",
    "methods": {
      "addUser(address,uint256,uint256,uint256,uint256)": {
        "notice": "Function to add certain user for vesting"
      },
      "available(address)": {
        "notice": "Function to see how much tokens is available"
      },
      "claim()": {
        "notice": "External function for user to claim his reward"
      }
    },
    "version": 1
  },
  "storageLayout": {
    "storage": [
      {
        "astId": 7,
        "contract": "contracts/Vesting.sol:Vesting",
        "label": "_owner",
        "offset": 0,
        "slot": "0",
        "type": "t_address"
      },
      {
        "astId": 1355,
        "contract": "contracts/Vesting.sol:Vesting",
        "label": "vestings",
        "offset": 0,
        "slot": "1",
        "type": "t_mapping(t_address,t_struct(VestingStruct)1366_storage)"
      }
    ],
    "types": {
      "t_address": {
        "encoding": "inplace",
        "label": "address",
        "numberOfBytes": "20"
      },
      "t_mapping(t_address,t_struct(VestingStruct)1366_storage)": {
        "encoding": "mapping",
        "key": "t_address",
        "label": "mapping(address => struct Vesting.VestingStruct)",
        "numberOfBytes": "32",
        "value": "t_struct(VestingStruct)1366_storage"
      },
      "t_struct(VestingStruct)1366_storage": {
        "encoding": "inplace",
        "label": "struct Vesting.VestingStruct",
        "members": [
          {
            "astId": 1357,
            "contract": "contracts/Vesting.sol:Vesting",
            "label": "amount",
            "offset": 0,
            "slot": "0",
            "type": "t_uint256"
          },
          {
            "astId": 1359,
            "contract": "contracts/Vesting.sol:Vesting",
            "label": "claimed",
            "offset": 0,
            "slot": "1",
            "type": "t_uint256"
          },
          {
            "astId": 1361,
            "contract": "contracts/Vesting.sol:Vesting",
            "label": "slicePeriod",
            "offset": 0,
            "slot": "2",
            "type": "t_uint256"
          },
          {
            "astId": 1363,
            "contract": "contracts/Vesting.sol:Vesting",
            "label": "startTime",
            "offset": 0,
            "slot": "3",
            "type": "t_uint256"
          },
          {
            "astId": 1365,
            "contract": "contracts/Vesting.sol:Vesting",
            "label": "duration",
            "offset": 0,
            "slot": "4",
            "type": "t_uint256"
          }
        ],
        "numberOfBytes": "160"
      },
      "t_uint256": {
        "encoding": "inplace",
        "label": "uint256",
        "numberOfBytes": "32"
      }
    }
  }
}